S01A0000446F6F725F4C6F636B65725F53797374656D2E73726563D3
S11300000C942A000C9447000C9447000C9447006D
S11300100C9447000C9447000C94BC050C944700C6
S11300200C9447000C9433060C9447000C9447003E
S11300300C9447000C9447000C9447000C94470020
S11300400C9447000C9447000C9447000C94470010
S11300500C94470011241FBECFE5D8E0DEBFCDBF0E
S113006011E0A0E6B0E0EAEFFDE002C005900D92D9
S1130070AC32B107D9F721E0ACE2B1E001C01D9286
S1130080AD33B207E1F70E9427010C94FB060C94F0
S11300900000CF92DF92EF92FF920F931F93CF93C2
S11300A0DF938C01EB0183E0C82ED12CE12CF12CE1
S11300B00E94B70360E081E00E948803C8010E94A7
S11300C0AB03C701B6010E942D0483E70E94180305
S11300D02FEF83ED90E3215080409040E1F700C082
S11300E0000021E0C21AD108E108F10809F70E94D2
S11300F09604DBBDCABDDF91CF911F910F91FF9094
S1130100EF90DF90CF900895EF92FF920F931F939B
S1130110CF93DF938C017B010E94B70360E081E001
S11301200E948803C8010E94AB0365E083E00E943B
S11301308803C0E0C83018F50E944202D82F8823F3
S1130140C9F30E94DA01D33689F40E94B70360E050
S113015081E00E948803C8010E94AB0365E083E04C
S11301600E948803F7011082C0E0E6CF8AE20E9471
S11301701803F701EC0FF11DD083CF5FDBCFDF91C4
S1130180CF911F910F91FF90EF9008950F931F93BC
S1130190CF93DF93CDB7DEB728970FB6F894DEBFC1
S11301A00FBECDBF68E572E085E690E00E9449008D
S11301B00E94B70388E790E00E94AB0360E081E00F
S11301C00E9488038AE890E00E94AB0301E00023C8
S11301D011F10E944202182F8823C9F30E94DA0108
S11301E0113349F0123399F762E870E089EA90E03C
S11301F00E94490010C0BE016F5F7F4F86E990E006
S11302000E94840048E050E064E670E0CE0101966C
S11302100E94C306CDCF28960FB6F894DEBF0FBE5A
S1130220CDBFDF91CF911F910F910895FB019C01E8
S1130230285F3F4FDC015D91CD014191541305C00E
S1130240A217B307B9F781E0089580E00895CF932A
S1130250DF93CDB7DEB760970FB6F894DEBF0FBE5D
S1130260CDBF8D9A0E94EF030E94F6010E94C8013F
S11302700E948F0466E081E00E9488038CEB90E08A
S11302800E94AB032FEF8BE792E92150804090400E
S1130290E1F700C000000E94B70312E048E050E01C
S11302A064E670E0CE0109960E94B30689858F3F0B
S11302B029F58A858F3F11F5BE01675F7F4F84EC76
S11302C090E00E94840048E050E064E670E0CE01D3
S11302D009960E94E4060E94B70361E081E00E944F
S11302E0880386ED90E00E94AB032FEF8DE399E441
S11302F0215080409040E1F700C000000E94B70305
S1130300BE016F5F7F4F88EE90E00E948400BE01C3
S11303106F5F7F4FCE0109960E941601882319F062
S11303200E94C600BACF111119C00E94B70363E03E
S113033081E00E9488038CEF90E00E94AB0315E0FB
S11303400E94E8012FEF83ED90E32150804090401C
S1130350E1F700C00000115099F79FCF0E94B70346
S113036063E081E00E9488038CE091E00E94AB038B
S11303702FEF87EA91E6215080409040E1F700C0DA
S1130380000011508BCF41E066E082E00C942D0513
S113039041E066E082E00E94980440E066E082E08A
S11303A00C942D0581110C94C30140E066E082E0B9
S11303B00C942D050E94C3012FEF81EE94E021508F
S11303C080409040E1F700C0000080E00C94D2012E
S11303D00E94C3012FEF83ED90E3215080409040B1
S11303E0E1F700C0000080E00C94D20141E067E036
S11303F083E00E94980441E066E083E00E94980450
S113040041E065E083E00E94980441E063E083E01A
S11304100E94980440E065E082E00E94980440E075
S113042064E082E00E94980440E063E082E00E947D
S1130430980440E062E082E00E94980465E082E073
S11304400E94FD0464E082E00E94FD0463E082E017
S11304500E94FD0462E082E00E94FD0441E067E046
S113046083E00E942D0541E066E083E00E942D05B3
S113047041E065E083E00E942D0541E063E083E014
S11304800C942D05AF92BF92CF92DF92EF92FF9220
S11304900F931F93CF93DF931F92CDB7DEB71982CB
S11304A0C12CD12CA12CB12C17E01430E9F113305C
S11304B011F4AA24A39440E0612F83E00E942D0547
S11304C0760127E0E21AF108C7018A199109FC01B3
S11304D0E55EFE4F7F0105E0AE014F5F5F4F602F89
S11304E082E00E9492058981811113C0F701B780CF
S11304F08981811108C0AE014F5F5F4F602F82E098
S11305000E949205F5CF8FE39CE90197F1F700C0B3
S11305100000015094E0E90EF11C0130E9F641E0DD
S1130520612F83E00E942D051150EFEFCE1ADE0AF1
S1130530123009F0BACF8B2D0F90DF91CF911F911C
S11305400F91FF90EF90DF90CF90BF90AF90089500
S1130550CF93C82F40E063E080E00E942D0540E087
S113056062E080E00E942D05C4FB442740F960E06E
S113057081E00E942D05C5FB442740F961E081E03C
S11305800E942D05C6FB442740F962E081E00E94E9
S11305902D054C2F441F4427441F64E081E00E9432
S11305A02D0541E062E080E00E942D0585E08A95FA
S11305B0F1F7000040E062E080E00E942D0595E044
S11305C09A95F1F700004C2F417060E081E00E94A1
S11305D02D05C1FB442740F961E081E00E942D050F
S11305E0C2FB442740F962E081E00E942D05C3FB71
S11305F0442740F964E081E00E942D0541E062E077
S113060080E00E942D0585E08A95F1F7000040E026
S113061062E080E00E942D0595E09A95F1F70000D4
S113062087EC90E00197F1F700C00000CF910895A6
S1130630CF93C82F41E063E080E00E942D0540E0A5
S113064062E080E00E942D05C4FB442740F960E08D
S113065081E00E942D05C5FB442740F961E081E05B
S11306600E942D05C6FB442740F962E081E00E9408
S11306702D054C2F441F4427441F64E081E00E9451
S11306802D0541E062E080E00E942D0585E08A9519
S1130690F1F7000040E062E080E00E942D0595E063
S11306A09A95F1F700004C2F417060E081E00E94C0
S11306B02D05C1FB442740F961E081E00E942D052E
S11306C0C2FB442740F962E081E00E942D05C3FB90
S11306D0442740F964E081E00E942D0541E062E096
S11306E080E00E942D0585E08A95F1F7000040E046
S11306F062E080E00E942D0595E09A95F1F70000F4
S113070087EC90E00197F1F700C00000CF910895C5
S11307100F931F93CF93DF9300D000D0CDB7DEB7F4
S11307200091610010916200209163003091640097
S113073009831A832B833C83FE01E80FF11D818119
S1130740860F0F900F900F900F90DF91CF911F9114
S11307500F910C94A802CF93DF93EC018991882325
S113076019F00E941803FACFDF91CF91089581E028
S11307700E94A8028FE39CE90197F1F700C00000F2
S11307800895811104C0809160008B7F05C0813081
S113079029F48091600084608093600080916000FF
S11307A00C94A802811104C0809160008D7F11C057
S11307B0813021F48091600082600BC0823021F48A
S11307C080916000816005C0833029F480916000CD
S11307D08E7F80936000809160000C94A8028BB39C
S11307E08C608BBB8AB38C608ABB88B3876188BBFF
S11307F087B3876187BB41E063E080E00E9498048F
S113080041E062E080E00E94980441E060E081E021
S11308100E94980441E061E081E00E94980441E074
S113082062E081E00E94980441E064E081E00E947B
S1130830980482E00E94A80288E20E94A80280E054
S11308400E94D20383E00E94D20381E00E94C1038C
S113085086E00E94A8020C94B7034F925F926F92B5
S11308607F928F929F92AF92BF92CF92DF92EF923C
S1130870FF924B015C0197FF0BC08DE20E941803AD
S1130880B094A09490948094811C911CA11CB11CE0
S113089061E070E080E090E03AE0432E512C612C5E
S11308A0712C81149104A104B104A9F0AAE0B0E070
S11308B09B01AC010E9477066B017C01C501B40168
S11308C0A30192010E9458066C0D7D1D8E1D9F1D73
S11308D049015A01E6CF2AE0C22ED12CE12CF12C99
S11308E062307105810591056CF0A70196010E94A3
S11308F0580649015A0180E3860F0E941803B40187
S1130900C501EECFFF90EF90DF90CF90BF90AF90F6
S11309109F908F907F906F905F904F90089541E0EB
S113092065E083E00E9498040C94AB050C94B80530
S1130930442379F1413009F05FC0813079F028F027
S11309408230A9F08330E1F008952AB381E090E089
S113095001C0880F6A95EAF7822B2CC027B381E087
S113096090E001C0880F6A95EAF7822B2EC024B369
S113097081E090E001C0880F6A95EAF7822B30C0CD
S113098021B381E090E001C0880F6A95EAF7822BD9
S113099032C0813089F028F08230C9F0833011F1FF
S11309A008952AB381E090E001C0880F6A95EAF7C0
S11309B0809582238ABB089527B381E090E001C02B
S11309C0880F6A95EAF78095822387BB089524B33C
S11309D081E090E001C0880F6A95EAF78095822350
S11309E084BB089521B381E090E001C0880F6A952B
S11309F0EAF78095822381BB0895813081F028F045
S1130A008230B9F08330F9F008952BB381E090E09F
S1130A1001C0880F6A95EAF7822B8BBB089528B32F
S1130A2081E090E001C0880F6A95EAF7822B88BBC9
S1130A30089525B381E090E001C0880F6A95EAF734
S1130A40822B85BB089522B381E090E001C0880F1A
S1130A506A95EAF7822B82BB0895442379F14130E9
S1130A6009F05FC0813079F028F08230A9F083303A
S1130A70E1F008952BB381E090E001C0880F6A95FE
S1130A80EAF7822B2CC028B381E090E001C0880FE4
S1130A906A95EAF7822B2EC025B381E090E001C06D
S1130AA0880F6A95EAF7822B30C022B381E090E088
S1130AB001C0880F6A95EAF7822B32C0813089F031
S1130AC028F08230C9F0833011F108952BB381E00E
S1130AD090E001C0880F6A95EAF7809582238BBB6A
S1130AE0089528B381E090E001C0880F6A95EAF781
S1130AF08095822388BB089525B381E090E001C0EE
S1130B00880F6A95EAF78095822385BB089522B3FE
S1130B1081E090E001C0880F6A95EAF7809582230E
S1130B2082BB0895FA01813041F028F0823039F017
S1130B30833039F0089589B305C086B303C083B305
S1130B4001C080B390E002C0959587956A95E2F75D
S1130B508170808308958FB582688FBD8EB588615A
S1130B608EBD1DBC1CBC83EC99E097BD86BD089569
S1130B708EB583608EBD08951F920F920FB60F92AB
S1130B8011242F933F938F939F93AF93BF9380919F
S1130B902C018F5F80932C0180912C018130B9F45A
S1130BA086B597B5A0E0B0E0809335019093360107
S1130BB0A0933701B09338011092390110923A0191
S1130BC010923B0110923C018EB58F7B1FC0809127
S1130BD02C018230E9F426B537B580913901909122
S1130BE03A01A0913B01B0913C01DC01992788278F
S1130BF0820F931FA11DB11D809331019093320187
S1130C00A0933301B09334018EB580648EBD20C0AF
S1130C1080912C018330E1F426B537B580913901F8
S1130C2090913A01A0913B01B0913C01DC019927DC
S1130C308827820F931FA11DB11D80932D019093CE
S1130C402E01A0932F01B093300189B78F7D89BF06
S1130C50BF91AF919F918F913F912F910F900FBEB4
S1130C600F901F9018951F920F920FB60F92112498
S1130C708F939F93AF93BF938091390190913A01E1
S1130C80A0913B01B0913C010196A11DB11D80933F
S1130C90390190933A01A0933B01B0933C01BF9179
S1130CA0AF919F918F910F900FBE0F901F90189549
S1130CB0052E97FB1EF400940E946F0657FD07D083
S1130CC00E94820607FC03D04EF40C946F065095E4
S1130CD04095309521953F4F4F4F5F4F0895909524
S1130CE08095709561957F4F8F4F9F4F08950E9417
S1130CF0A406A59F900DB49F900DA49F800D911DF7
S1130D0011240895A1E21A2EAA1BBB1BFD010DC0DC
S1130D10AA1FBB1FEE1FFF1FA217B307E407F507A7
S1130D2020F0A21BB30BE40BF50B661F771F881F83
S1130D30991F1A9469F760957095809590959B0119
S1130D40AC01BD01CF010895A29FB001B39FC001C2
S1130D50A39F700D811D1124911DB29F700D811DE3
S1130D601124911D0895DC01CB01FC01E199FECF12
S1130D7006C0FFBBEEBBE09A31960DB20D92415016
S1130D805040B8F70895DC01A40FB51F41505040FE
S1130D9048F0CB01840F951F2E910E94D406415038
S1130DA05040D0F70895262FE199FECF9FBB8EBB0C
S1130DB0E09A01970DB2021631F02DBB0FB6F894EC
S1130DC0E29AE19A0FBE0895DC01CB0103C02D9194
S1130DD00E94EF0641505040D0F70895262FE19924
S1130DE0FECF9FBB8EBB2DBB0FB6F894E29AE19A5F
S10D0DF00FBE01960895F894FFCF9A
S1130DFA0880C094D4446F6F722077696C6C206F3A
S1130E0A70656E20696E2000312E4368616E6765D5
S1130E1A2050617373776F726400322E4C6F636B68
S1130E2A20446F6F7200456E746572206E65772078
S1130E3A50617373776F726400446F6F72207769BD
S1130E4A6C6C206C6F636B20696E200057656C6351
S1130E5A6F6D650053657420446F6F72205061731F
S1130E6A73776F72640050617373776F726420537F
S1130E7A61766564203A2900456E74657220446F70
S1130E8A6F722050617373776F726400596F7520A3
S1130E9A61726520426C6F636B65640057726F6E92
S1130EAA672050617373776F72640037383941343D
S10F0EBA35364231323343633045440086
S9030000FC
